{
  "_format": "hh-sol-artifact-1",
  "contractName": "CustomNFTMarketplace",
  "sourceName": "contracts/CustomNFTMarketplace.sol",
  "abi": [
    {
      "inputs": [
        {
          "internalType": "address",
          "name": "_cusd",
          "type": "address"
        },
        {
          "internalType": "address",
          "name": "initialOwner",
          "type": "address"
        }
      ],
      "stateMutability": "nonpayable",
      "type": "constructor"
    },
    {
      "inputs": [
        {
          "internalType": "address",
          "name": "sender",
          "type": "address"
        },
        {
          "internalType": "uint256",
          "name": "tokenId",
          "type": "uint256"
        },
        {
          "internalType": "address",
          "name": "owner",
          "type": "address"
        }
      ],
      "name": "ERC721IncorrectOwner",
      "type": "error"
    },
    {
      "inputs": [
        {
          "internalType": "address",
          "name": "operator",
          "type": "address"
        },
        {
          "internalType": "uint256",
          "name": "tokenId",
          "type": "uint256"
        }
      ],
      "name": "ERC721InsufficientApproval",
      "type": "error"
    },
    {
      "inputs": [
        {
          "internalType": "address",
          "name": "approver",
          "type": "address"
        }
      ],
      "name": "ERC721InvalidApprover",
      "type": "error"
    },
    {
      "inputs": [
        {
          "internalType": "address",
          "name": "operator",
          "type": "address"
        }
      ],
      "name": "ERC721InvalidOperator",
      "type": "error"
    },
    {
      "inputs": [
        {
          "internalType": "address",
          "name": "owner",
          "type": "address"
        }
      ],
      "name": "ERC721InvalidOwner",
      "type": "error"
    },
    {
      "inputs": [
        {
          "internalType": "address",
          "name": "receiver",
          "type": "address"
        }
      ],
      "name": "ERC721InvalidReceiver",
      "type": "error"
    },
    {
      "inputs": [
        {
          "internalType": "address",
          "name": "sender",
          "type": "address"
        }
      ],
      "name": "ERC721InvalidSender",
      "type": "error"
    },
    {
      "inputs": [
        {
          "internalType": "uint256",
          "name": "tokenId",
          "type": "uint256"
        }
      ],
      "name": "ERC721NonexistentToken",
      "type": "error"
    },
    {
      "inputs": [
        {
          "internalType": "address",
          "name": "owner",
          "type": "address"
        }
      ],
      "name": "OwnableInvalidOwner",
      "type": "error"
    },
    {
      "inputs": [
        {
          "internalType": "address",
          "name": "account",
          "type": "address"
        }
      ],
      "name": "OwnableUnauthorizedAccount",
      "type": "error"
    },
    {
      "anonymous": false,
      "inputs": [
        {
          "indexed": true,
          "internalType": "address",
          "name": "owner",
          "type": "address"
        },
        {
          "indexed": true,
          "internalType": "address",
          "name": "approved",
          "type": "address"
        },
        {
          "indexed": true,
          "internalType": "uint256",
          "name": "tokenId",
          "type": "uint256"
        }
      ],
      "name": "Approval",
      "type": "event"
    },
    {
      "anonymous": false,
      "inputs": [
        {
          "indexed": true,
          "internalType": "address",
          "name": "owner",
          "type": "address"
        },
        {
          "indexed": true,
          "internalType": "address",
          "name": "operator",
          "type": "address"
        },
        {
          "indexed": false,
          "internalType": "bool",
          "name": "approved",
          "type": "bool"
        }
      ],
      "name": "ApprovalForAll",
      "type": "event"
    },
    {
      "anonymous": false,
      "inputs": [
        {
          "indexed": true,
          "internalType": "uint256",
          "name": "tokenId",
          "type": "uint256"
        }
      ],
      "name": "NFTListedForSale",
      "type": "event"
    },
    {
      "anonymous": false,
      "inputs": [
        {
          "indexed": true,
          "internalType": "uint256",
          "name": "tokenId",
          "type": "uint256"
        },
        {
          "indexed": false,
          "internalType": "address",
          "name": "buyer",
          "type": "address"
        }
      ],
      "name": "NFTPurchased",
      "type": "event"
    },
    {
      "anonymous": false,
      "inputs": [
        {
          "indexed": true,
          "internalType": "address",
          "name": "previousOwner",
          "type": "address"
        },
        {
          "indexed": true,
          "internalType": "address",
          "name": "newOwner",
          "type": "address"
        }
      ],
      "name": "OwnershipTransferred",
      "type": "event"
    },
    {
      "anonymous": false,
      "inputs": [
        {
          "indexed": true,
          "internalType": "address",
          "name": "from",
          "type": "address"
        },
        {
          "indexed": true,
          "internalType": "address",
          "name": "to",
          "type": "address"
        },
        {
          "indexed": true,
          "internalType": "uint256",
          "name": "tokenId",
          "type": "uint256"
        }
      ],
      "name": "Transfer",
      "type": "event"
    },
    {
      "inputs": [
        {
          "internalType": "address",
          "name": "to",
          "type": "address"
        },
        {
          "internalType": "uint256",
          "name": "tokenId",
          "type": "uint256"
        }
      ],
      "name": "approve",
      "outputs": [],
      "stateMutability": "nonpayable",
      "type": "function"
    },
    {
      "inputs": [
        {
          "internalType": "address",
          "name": "owner",
          "type": "address"
        }
      ],
      "name": "balanceOf",
      "outputs": [
        {
          "internalType": "uint256",
          "name": "",
          "type": "uint256"
        }
      ],
      "stateMutability": "view",
      "type": "function"
    },
    {
      "inputs": [],
      "name": "cusd",
      "outputs": [
        {
          "internalType": "contract ICustomERC20",
          "name": "",
          "type": "address"
        }
      ],
      "stateMutability": "view",
      "type": "function"
    },
    {
      "inputs": [
        {
          "internalType": "uint256",
          "name": "tokenId",
          "type": "uint256"
        }
      ],
      "name": "getApproved",
      "outputs": [
        {
          "internalType": "address",
          "name": "",
          "type": "address"
        }
      ],
      "stateMutability": "view",
      "type": "function"
    },
    {
      "inputs": [
        {
          "internalType": "address",
          "name": "owner",
          "type": "address"
        },
        {
          "internalType": "address",
          "name": "operator",
          "type": "address"
        }
      ],
      "name": "isApprovedForAll",
      "outputs": [
        {
          "internalType": "bool",
          "name": "",
          "type": "bool"
        }
      ],
      "stateMutability": "view",
      "type": "function"
    },
    {
      "inputs": [
        {
          "internalType": "uint256",
          "name": "tokenId",
          "type": "uint256"
        }
      ],
      "name": "listForSale",
      "outputs": [],
      "stateMutability": "nonpayable",
      "type": "function"
    },
    {
      "inputs": [],
      "name": "mint",
      "outputs": [],
      "stateMutability": "nonpayable",
      "type": "function"
    },
    {
      "inputs": [],
      "name": "name",
      "outputs": [
        {
          "internalType": "string",
          "name": "",
          "type": "string"
        }
      ],
      "stateMutability": "view",
      "type": "function"
    },
    {
      "inputs": [
        {
          "internalType": "uint256",
          "name": "",
          "type": "uint256"
        }
      ],
      "name": "nftExists",
      "outputs": [
        {
          "internalType": "bool",
          "name": "",
          "type": "bool"
        }
      ],
      "stateMutability": "view",
      "type": "function"
    },
    {
      "inputs": [
        {
          "internalType": "uint256",
          "name": "",
          "type": "uint256"
        }
      ],
      "name": "nftForSale",
      "outputs": [
        {
          "internalType": "bool",
          "name": "",
          "type": "bool"
        }
      ],
      "stateMutability": "view",
      "type": "function"
    },
    {
      "inputs": [],
      "name": "owner",
      "outputs": [
        {
          "internalType": "address",
          "name": "",
          "type": "address"
        }
      ],
      "stateMutability": "view",
      "type": "function"
    },
    {
      "inputs": [
        {
          "internalType": "uint256",
          "name": "tokenId",
          "type": "uint256"
        }
      ],
      "name": "ownerOf",
      "outputs": [
        {
          "internalType": "address",
          "name": "",
          "type": "address"
        }
      ],
      "stateMutability": "view",
      "type": "function"
    },
    {
      "inputs": [
        {
          "internalType": "uint256",
          "name": "tokenId",
          "type": "uint256"
        }
      ],
      "name": "purchaseNFT",
      "outputs": [],
      "stateMutability": "nonpayable",
      "type": "function"
    },
    {
      "inputs": [],
      "name": "renounceOwnership",
      "outputs": [],
      "stateMutability": "nonpayable",
      "type": "function"
    },
    {
      "inputs": [
        {
          "internalType": "address",
          "name": "from",
          "type": "address"
        },
        {
          "internalType": "address",
          "name": "to",
          "type": "address"
        },
        {
          "internalType": "uint256",
          "name": "tokenId",
          "type": "uint256"
        }
      ],
      "name": "safeTransferFrom",
      "outputs": [],
      "stateMutability": "nonpayable",
      "type": "function"
    },
    {
      "inputs": [
        {
          "internalType": "address",
          "name": "from",
          "type": "address"
        },
        {
          "internalType": "address",
          "name": "to",
          "type": "address"
        },
        {
          "internalType": "uint256",
          "name": "tokenId",
          "type": "uint256"
        },
        {
          "internalType": "bytes",
          "name": "data",
          "type": "bytes"
        }
      ],
      "name": "safeTransferFrom",
      "outputs": [],
      "stateMutability": "nonpayable",
      "type": "function"
    },
    {
      "inputs": [
        {
          "internalType": "address",
          "name": "operator",
          "type": "address"
        },
        {
          "internalType": "bool",
          "name": "approved",
          "type": "bool"
        }
      ],
      "name": "setApprovalForAll",
      "outputs": [],
      "stateMutability": "nonpayable",
      "type": "function"
    },
    {
      "inputs": [
        {
          "internalType": "bytes4",
          "name": "interfaceId",
          "type": "bytes4"
        }
      ],
      "name": "supportsInterface",
      "outputs": [
        {
          "internalType": "bool",
          "name": "",
          "type": "bool"
        }
      ],
      "stateMutability": "view",
      "type": "function"
    },
    {
      "inputs": [],
      "name": "symbol",
      "outputs": [
        {
          "internalType": "string",
          "name": "",
          "type": "string"
        }
      ],
      "stateMutability": "view",
      "type": "function"
    },
    {
      "inputs": [
        {
          "internalType": "uint256",
          "name": "tokenId",
          "type": "uint256"
        }
      ],
      "name": "tokenURI",
      "outputs": [
        {
          "internalType": "string",
          "name": "",
          "type": "string"
        }
      ],
      "stateMutability": "view",
      "type": "function"
    },
    {
      "inputs": [
        {
          "internalType": "address",
          "name": "from",
          "type": "address"
        },
        {
          "internalType": "address",
          "name": "to",
          "type": "address"
        },
        {
          "internalType": "uint256",
          "name": "tokenId",
          "type": "uint256"
        }
      ],
      "name": "transferFrom",
      "outputs": [],
      "stateMutability": "nonpayable",
      "type": "function"
    },
    {
      "inputs": [
        {
          "internalType": "address",
          "name": "newOwner",
          "type": "address"
        }
      ],
      "name": "transferOwnership",
      "outputs": [],
      "stateMutability": "nonpayable",
      "type": "function"
    }
  ],
  "bytecode": "0x608060405260016008553480156200001657600080fd5b50604051620031c1380380620031c183398181016040528101906200003c91906200036a565b806040518060400160405280600981526020017f437573746f6d4e465400000000000000000000000000000000000000000000008152506040518060400160405280600481526020017f434e4654000000000000000000000000000000000000000000000000000000008152508160009081620000ba91906200062b565b508060019081620000cc91906200062b565b505050600073ffffffffffffffffffffffffffffffffffffffff168173ffffffffffffffffffffffffffffffffffffffff1603620001445760006040517f1e4fbdf70000000000000000000000000000000000000000000000000000000081526004016200013b919062000723565b60405180910390fd5b62000155816200023a60201b60201c565b5081600760006101000a81548173ffffffffffffffffffffffffffffffffffffffff021916908373ffffffffffffffffffffffffffffffffffffffff160217905550600760009054906101000a900473ffffffffffffffffffffffffffffffffffffffff1673ffffffffffffffffffffffffffffffffffffffff166340c10f1982670de0b6b3a76400006040518363ffffffff1660e01b8152600401620001fe92919062000783565b600060405180830381600087803b1580156200021957600080fd5b505af11580156200022e573d6000803e3d6000fd5b505050505050620007b0565b6000600660009054906101000a900473ffffffffffffffffffffffffffffffffffffffff16905081600660006101000a81548173ffffffffffffffffffffffffffffffffffffffff021916908373ffffffffffffffffffffffffffffffffffffffff1602179055508173ffffffffffffffffffffffffffffffffffffffff168173ffffffffffffffffffffffffffffffffffffffff167f8be0079c531659141344cd1fd0a4f28419497f9722a3daafe3b4186f6b6457e060405160405180910390a35050565b600080fd5b600073ffffffffffffffffffffffffffffffffffffffff82169050919050565b6000620003328262000305565b9050919050565b620003448162000325565b81146200035057600080fd5b50565b600081519050620003648162000339565b92915050565b6000806040838503121562000384576200038362000300565b5b6000620003948582860162000353565b9250506020620003a78582860162000353565b9150509250929050565b600081519050919050565b7f4e487b7100000000000000000000000000000000000000000000000000000000600052604160045260246000fd5b7f4e487b7100000000000000000000000000000000000000000000000000000000600052602260045260246000fd5b600060028204905060018216806200043357607f821691505b602082108103620004495762000448620003eb565b5b50919050565b60008190508160005260206000209050919050565b60006020601f8301049050919050565b600082821b905092915050565b600060088302620004b37fffffffffffffffffffffffffffffffffffffffffffffffffffffffffffffffff8262000474565b620004bf868362000474565b95508019841693508086168417925050509392505050565b6000819050919050565b6000819050919050565b60006200050c620005066200050084620004d7565b620004e1565b620004d7565b9050919050565b6000819050919050565b6200052883620004eb565b62000540620005378262000513565b84845462000481565b825550505050565b600090565b6200055762000548565b620005648184846200051d565b505050565b5b818110156200058c57620005806000826200054d565b6001810190506200056a565b5050565b601f821115620005db57620005a5816200044f565b620005b08462000464565b81016020851015620005c0578190505b620005d8620005cf8562000464565b83018262000569565b50505b505050565b600082821c905092915050565b60006200060060001984600802620005e0565b1980831691505092915050565b60006200061b8383620005ed565b9150826002028217905092915050565b6200063682620003b1565b67ffffffffffffffff811115620006525762000651620003bc565b5b6200065e82546200041a565b6200066b82828562000590565b600060209050601f831160018114620006a357600084156200068e578287015190505b6200069a85826200060d565b8655506200070a565b601f198416620006b3866200044f565b60005b82811015620006dd57848901518255600182019150602085019450602081019050620006b6565b86831015620006fd5784890151620006f9601f891682620005ed565b8355505b6001600288020188555050505b505050505050565b6200071d8162000325565b82525050565b60006020820190506200073a600083018462000712565b92915050565b6000819050919050565b60006200076b620007656200075f8462000740565b620004e1565b620004d7565b9050919050565b6200077d816200074a565b82525050565b60006040820190506200079a600083018562000712565b620007a9602083018462000772565b9392505050565b612a0180620007c06000396000f3fe608060405234801561001057600080fd5b50600436106101425760003560e01c8063715018a6116100b8578063b88d4fde1161007c578063b88d4fde1461034f578063c7857fb51461036b578063c87b56dd14610387578063cb6205e4146103b7578063e985e9c5146103e7578063f2fde38b1461041757610142565b8063715018a6146102bd5780638da5cb5b146102c757806390ba7a32146102e557806395d89b4114610315578063a22cb4651461033357610142565b80631249c58b1161010a5780631249c58b146101ff578063150bde031461020957806323b872dd1461022557806342842e0e146102415780636352211e1461025d57806370a082311461028d57610142565b806301ffc9a71461014757806306fdde0314610177578063081812fc14610195578063095ea7b3146101c55780630c577bdc146101e1575b600080fd5b610161600480360381019061015c9190611f31565b610433565b60405161016e9190611f79565b60405180910390f35b61017f610515565b60405161018c9190612024565b60405180910390f35b6101af60048036038101906101aa919061207c565b6105a7565b6040516101bc91906120ea565b60405180910390f35b6101df60048036038101906101da9190612131565b6105c3565b005b6101e96105d9565b6040516101f691906121d0565b60405180910390f35b6102076105ff565b005b610223600480360381019061021e919061207c565b61065f565b005b61023f600480360381019061023a91906121eb565b610849565b005b61025b600480360381019061025691906121eb565b61094b565b005b6102776004803603810190610272919061207c565b61096b565b60405161028491906120ea565b60405180910390f35b6102a760048036038101906102a2919061223e565b61097d565b6040516102b4919061227a565b60405180910390f35b6102c5610a37565b005b6102cf610a4b565b6040516102dc91906120ea565b60405180910390f35b6102ff60048036038101906102fa919061207c565b610a75565b60405161030c9190611f79565b60405180910390f35b61031d610a95565b60405161032a9190612024565b60405180910390f35b61034d600480360381019061034891906122c1565b610b27565b005b61036960048036038101906103649190612436565b610b3d565b005b6103856004803603810190610380919061207c565b610b5a565b005b6103a1600480360381019061039c919061207c565b610ced565b6040516103ae9190612024565b60405180910390f35b6103d160048036038101906103cc919061207c565b610d56565b6040516103de9190611f79565b60405180910390f35b61040160048036038101906103fc91906124b9565b610d76565b60405161040e9190611f79565b60405180910390f35b610431600480360381019061042c919061223e565b610e0a565b005b60007f80ac58cd000000000000000000000000000000000000000000000000000000007bffffffffffffffffffffffffffffffffffffffffffffffffffffffff1916827bffffffffffffffffffffffffffffffffffffffffffffffffffffffff191614806104fe57507f5b5e139f000000000000000000000000000000000000000000000000000000007bffffffffffffffffffffffffffffffffffffffffffffffffffffffff1916827bffffffffffffffffffffffffffffffffffffffffffffffffffffffff1916145b8061050e575061050d82610e90565b5b9050919050565b60606000805461052490612528565b80601f016020809104026020016040519081016040528092919081815260200182805461055090612528565b801561059d5780601f106105725761010080835404028352916020019161059d565b820191906000526020600020905b81548152906001019060200180831161058057829003601f168201915b5050505050905090565b60006105b282610efa565b506105bc82610f82565b9050919050565b6105d582826105d0610fbf565b610fc7565b5050565b600760009054906101000a900473ffffffffffffffffffffffffffffffffffffffff1681565b610607610fd9565b600060085490506106183382611060565b60016009600083815260200190815260200160002060006101000a81548160ff0219169083151502179055506008600081548092919061065790612588565b919050555050565b600a600082815260200190815260200160002060009054906101000a900460ff166106bf576040517f08c379a00000000000000000000000000000000000000000000000000000000081526004016106b69061261c565b60405180910390fd5b6009600082815260200190815260200160002060009054906101000a900460ff1661071f576040517f08c379a000000000000000000000000000000000000000000000000000000000815260040161071690612688565b60405180910390fd5b600061072a8261096b565b905060006001905061073d82338561107e565b600760009054906101000a900473ffffffffffffffffffffffffffffffffffffffff1673ffffffffffffffffffffffffffffffffffffffff166323b872dd3384846040518463ffffffff1660e01b815260040161079c939291906126a8565b6020604051808303816000875af11580156107bb573d6000803e3d6000fd5b505050506040513d601f19601f820116820180604052508101906107df91906126f4565b506000600a600085815260200190815260200160002060006101000a81548160ff021916908315150217905550827fbebca6653c629a651174dc2ea9b9f7ef506290dee89fe1a6087eb1e12c06d4303360405161083c91906120ea565b60405180910390a2505050565b600073ffffffffffffffffffffffffffffffffffffffff168273ffffffffffffffffffffffffffffffffffffffff16036108bb5760006040517f64a0ae920000000000000000000000000000000000000000000000000000000081526004016108b291906120ea565b60405180910390fd5b60006108cf83836108ca610fbf565b6111eb565b90508373ffffffffffffffffffffffffffffffffffffffff168173ffffffffffffffffffffffffffffffffffffffff1614610945578382826040517f64283d7b00000000000000000000000000000000000000000000000000000000815260040161093c93929190612721565b60405180910390fd5b50505050565b61096683838360405180602001604052806000815250610b3d565b505050565b600061097682610efa565b9050919050565b60008073ffffffffffffffffffffffffffffffffffffffff168273ffffffffffffffffffffffffffffffffffffffff16036109f05760006040517f89c62b640000000000000000000000000000000000000000000000000000000081526004016109e791906120ea565b60405180910390fd5b600360008373ffffffffffffffffffffffffffffffffffffffff1673ffffffffffffffffffffffffffffffffffffffff168152602001908152602001600020549050919050565b610a3f610fd9565b610a496000611405565b565b6000600660009054906101000a900473ffffffffffffffffffffffffffffffffffffffff16905090565b600a6020528060005260406000206000915054906101000a900460ff1681565b606060018054610aa490612528565b80601f0160208091040260200160405190810160405280929190818152602001828054610ad090612528565b8015610b1d5780601f10610af257610100808354040283529160200191610b1d565b820191906000526020600020905b815481529060010190602001808311610b0057829003601f168201915b5050505050905090565b610b39610b32610fbf565b83836114cb565b5050565b610b48848484610849565b610b548484848461163a565b50505050565b3373ffffffffffffffffffffffffffffffffffffffff16610b7a8261096b565b73ffffffffffffffffffffffffffffffffffffffff1614610bd0576040517f08c379a0000000000000000000000000000000000000000000000000000000008152600401610bc7906127a4565b60405180910390fd5b6009600082815260200190815260200160002060009054906101000a900460ff16610c30576040517f08c379a0000000000000000000000000000000000000000000000000000000008152600401610c2790612688565b60405180910390fd5b600a600082815260200190815260200160002060009054906101000a900460ff1615610c91576040517f08c379a0000000000000000000000000000000000000000000000000000000008152600401610c8890612810565b60405180910390fd5b6001600a600083815260200190815260200160002060006101000a81548160ff021916908315150217905550807fdbe5eb86c9673f611918ce0165269b9c527c784e5f54535460cbe3fc5822605a60405160405180910390a250565b6060610cf882610efa565b506000610d036117f1565b90506000815111610d235760405180602001604052806000815250610d4e565b80610d2d84611808565b604051602001610d3e92919061286c565b6040516020818303038152906040525b915050919050565b60096020528060005260406000206000915054906101000a900460ff1681565b6000600560008473ffffffffffffffffffffffffffffffffffffffff1673ffffffffffffffffffffffffffffffffffffffff16815260200190815260200160002060008373ffffffffffffffffffffffffffffffffffffffff1673ffffffffffffffffffffffffffffffffffffffff16815260200190815260200160002060009054906101000a900460ff16905092915050565b610e12610fd9565b600073ffffffffffffffffffffffffffffffffffffffff168173ffffffffffffffffffffffffffffffffffffffff1603610e845760006040517f1e4fbdf7000000000000000000000000000000000000000000000000000000008152600401610e7b91906120ea565b60405180910390fd5b610e8d81611405565b50565b60007f01ffc9a7000000000000000000000000000000000000000000000000000000007bffffffffffffffffffffffffffffffffffffffffffffffffffffffff1916827bffffffffffffffffffffffffffffffffffffffffffffffffffffffff1916149050919050565b600080610f06836118d6565b9050600073ffffffffffffffffffffffffffffffffffffffff168173ffffffffffffffffffffffffffffffffffffffff1603610f7957826040517f7e273289000000000000000000000000000000000000000000000000000000008152600401610f70919061227a565b60405180910390fd5b80915050919050565b60006004600083815260200190815260200160002060009054906101000a900473ffffffffffffffffffffffffffffffffffffffff169050919050565b600033905090565b610fd48383836001611913565b505050565b610fe1610fbf565b73ffffffffffffffffffffffffffffffffffffffff16610fff610a4b565b73ffffffffffffffffffffffffffffffffffffffff161461105e57611022610fbf565b6040517f118cdaa700000000000000000000000000000000000000000000000000000000815260040161105591906120ea565b60405180910390fd5b565b61107a828260405180602001604052806000815250611ad8565b5050565b600073ffffffffffffffffffffffffffffffffffffffff168273ffffffffffffffffffffffffffffffffffffffff16036110f05760006040517f64a0ae920000000000000000000000000000000000000000000000000000000081526004016110e791906120ea565b60405180910390fd5b60006110fe838360006111eb565b9050600073ffffffffffffffffffffffffffffffffffffffff168173ffffffffffffffffffffffffffffffffffffffff160361117157816040517f7e273289000000000000000000000000000000000000000000000000000000008152600401611168919061227a565b60405180910390fd5b8373ffffffffffffffffffffffffffffffffffffffff168173ffffffffffffffffffffffffffffffffffffffff16146111e5578382826040517f64283d7b0000000000000000000000000000000000000000000000000000000081526004016111dc93929190612721565b60405180910390fd5b50505050565b6000806111f7846118d6565b9050600073ffffffffffffffffffffffffffffffffffffffff168373ffffffffffffffffffffffffffffffffffffffff161461123957611238818486611af4565b5b600073ffffffffffffffffffffffffffffffffffffffff168173ffffffffffffffffffffffffffffffffffffffff16146112ca5761127b600085600080611913565b6001600360008373ffffffffffffffffffffffffffffffffffffffff1673ffffffffffffffffffffffffffffffffffffffff168152602001908152602001600020600082825403925050819055505b600073ffffffffffffffffffffffffffffffffffffffff168573ffffffffffffffffffffffffffffffffffffffff161461134d576001600360008773ffffffffffffffffffffffffffffffffffffffff1673ffffffffffffffffffffffffffffffffffffffff168152602001908152602001600020600082825401925050819055505b846002600086815260200190815260200160002060006101000a81548173ffffffffffffffffffffffffffffffffffffffff021916908373ffffffffffffffffffffffffffffffffffffffff160217905550838573ffffffffffffffffffffffffffffffffffffffff168273ffffffffffffffffffffffffffffffffffffffff167fddf252ad1be2c89b69c2b068fc378daa952ba7f163c4a11628f55a4df523b3ef60405160405180910390a4809150509392505050565b6000600660009054906101000a900473ffffffffffffffffffffffffffffffffffffffff16905081600660006101000a81548173ffffffffffffffffffffffffffffffffffffffff021916908373ffffffffffffffffffffffffffffffffffffffff1602179055508173ffffffffffffffffffffffffffffffffffffffff168173ffffffffffffffffffffffffffffffffffffffff167f8be0079c531659141344cd1fd0a4f28419497f9722a3daafe3b4186f6b6457e060405160405180910390a35050565b600073ffffffffffffffffffffffffffffffffffffffff168273ffffffffffffffffffffffffffffffffffffffff160361153c57816040517f5b08ba1800000000000000000000000000000000000000000000000000000000815260040161153391906120ea565b60405180910390fd5b80600560008573ffffffffffffffffffffffffffffffffffffffff1673ffffffffffffffffffffffffffffffffffffffff16815260200190815260200160002060008473ffffffffffffffffffffffffffffffffffffffff1673ffffffffffffffffffffffffffffffffffffffff16815260200190815260200160002060006101000a81548160ff0219169083151502179055508173ffffffffffffffffffffffffffffffffffffffff168373ffffffffffffffffffffffffffffffffffffffff167f17307eab39ab6107e8899845ad3d59bd9653f200f220920489ca2b5937696c318360405161162d9190611f79565b60405180910390a3505050565b60008373ffffffffffffffffffffffffffffffffffffffff163b11156117eb578273ffffffffffffffffffffffffffffffffffffffff1663150b7a0261167e610fbf565b8685856040518563ffffffff1660e01b81526004016116a094939291906128e5565b6020604051808303816000875af19250505080156116dc57506040513d601f19601f820116820180604052508101906116d99190612946565b60015b611760573d806000811461170c576040519150601f19603f3d011682016040523d82523d6000602084013e611711565b606091505b50600081510361175857836040517f64a0ae9200000000000000000000000000000000000000000000000000000000815260040161174f91906120ea565b60405180910390fd5b805181602001fd5b63150b7a0260e01b7bffffffffffffffffffffffffffffffffffffffffffffffffffffffff1916817bffffffffffffffffffffffffffffffffffffffffffffffffffffffff1916146117e957836040517f64a0ae920000000000000000000000000000000000000000000000000000000081526004016117e091906120ea565b60405180910390fd5b505b50505050565b606060405180602001604052806000815250905090565b60606000600161181784611bb8565b01905060008167ffffffffffffffff8111156118365761183561230b565b5b6040519080825280601f01601f1916602001820160405280156118685781602001600182028036833780820191505090505b509050600082602001820190505b6001156118cb578080600190039150507f3031323334353637383961626364656600000000000000000000000000000000600a86061a8153600a85816118bf576118be612973565b5b04945060008503611876575b819350505050919050565b60006002600083815260200190815260200160002060009054906101000a900473ffffffffffffffffffffffffffffffffffffffff169050919050565b808061194c5750600073ffffffffffffffffffffffffffffffffffffffff168273ffffffffffffffffffffffffffffffffffffffff1614155b15611a8057600061195c84610efa565b9050600073ffffffffffffffffffffffffffffffffffffffff168373ffffffffffffffffffffffffffffffffffffffff16141580156119c757508273ffffffffffffffffffffffffffffffffffffffff168173ffffffffffffffffffffffffffffffffffffffff1614155b80156119da57506119d88184610d76565b155b15611a1c57826040517fa9fbf51f000000000000000000000000000000000000000000000000000000008152600401611a1391906120ea565b60405180910390fd5b8115611a7e57838573ffffffffffffffffffffffffffffffffffffffff168273ffffffffffffffffffffffffffffffffffffffff167f8c5be1e5ebec7d5bd14f71427d1e84f3dd0314c0f7b2291e5b200ac8c7c3b92560405160405180910390a45b505b836004600085815260200190815260200160002060006101000a81548173ffffffffffffffffffffffffffffffffffffffff021916908373ffffffffffffffffffffffffffffffffffffffff16021790555050505050565b611ae28383611d0b565b611aef600084848461163a565b505050565b611aff838383611e04565b611bb357600073ffffffffffffffffffffffffffffffffffffffff168373ffffffffffffffffffffffffffffffffffffffff1603611b7457806040517f7e273289000000000000000000000000000000000000000000000000000000008152600401611b6b919061227a565b60405180910390fd5b81816040517f177e802f000000000000000000000000000000000000000000000000000000008152600401611baa9291906129a2565b60405180910390fd5b505050565b600080600090507a184f03e93ff9f4daa797ed6e38ed64bf6a1f0100000000000000008310611c16577a184f03e93ff9f4daa797ed6e38ed64bf6a1f0100000000000000008381611c0c57611c0b612973565b5b0492506040810190505b6d04ee2d6d415b85acef81000000008310611c53576d04ee2d6d415b85acef81000000008381611c4957611c48612973565b5b0492506020810190505b662386f26fc100008310611c8257662386f26fc100008381611c7857611c77612973565b5b0492506010810190505b6305f5e1008310611cab576305f5e1008381611ca157611ca0612973565b5b0492506008810190505b6127108310611cd0576127108381611cc657611cc5612973565b5b0492506004810190505b60648310611cf35760648381611ce957611ce8612973565b5b0492506002810190505b600a8310611d02576001810190505b80915050919050565b600073ffffffffffffffffffffffffffffffffffffffff168273ffffffffffffffffffffffffffffffffffffffff1603611d7d5760006040517f64a0ae92000000000000000000000000000000000000000000000000000000008152600401611d7491906120ea565b60405180910390fd5b6000611d8b838360006111eb565b9050600073ffffffffffffffffffffffffffffffffffffffff168173ffffffffffffffffffffffffffffffffffffffff1614611dff5760006040517f73c6ac6e000000000000000000000000000000000000000000000000000000008152600401611df691906120ea565b60405180910390fd5b505050565b60008073ffffffffffffffffffffffffffffffffffffffff168373ffffffffffffffffffffffffffffffffffffffff1614158015611ebc57508273ffffffffffffffffffffffffffffffffffffffff168473ffffffffffffffffffffffffffffffffffffffff161480611e7d5750611e7c8484610d76565b5b80611ebb57508273ffffffffffffffffffffffffffffffffffffffff16611ea383610f82565b73ffffffffffffffffffffffffffffffffffffffff16145b5b90509392505050565b6000604051905090565b600080fd5b600080fd5b60007fffffffff0000000000000000000000000000000000000000000000000000000082169050919050565b611f0e81611ed9565b8114611f1957600080fd5b50565b600081359050611f2b81611f05565b92915050565b600060208284031215611f4757611f46611ecf565b5b6000611f5584828501611f1c565b91505092915050565b60008115159050919050565b611f7381611f5e565b82525050565b6000602082019050611f8e6000830184611f6a565b92915050565b600081519050919050565b600082825260208201905092915050565b60005b83811015611fce578082015181840152602081019050611fb3565b60008484015250505050565b6000601f19601f8301169050919050565b6000611ff682611f94565b6120008185611f9f565b9350612010818560208601611fb0565b61201981611fda565b840191505092915050565b6000602082019050818103600083015261203e8184611feb565b905092915050565b6000819050919050565b61205981612046565b811461206457600080fd5b50565b60008135905061207681612050565b92915050565b60006020828403121561209257612091611ecf565b5b60006120a084828501612067565b91505092915050565b600073ffffffffffffffffffffffffffffffffffffffff82169050919050565b60006120d4826120a9565b9050919050565b6120e4816120c9565b82525050565b60006020820190506120ff60008301846120db565b92915050565b61210e816120c9565b811461211957600080fd5b50565b60008135905061212b81612105565b92915050565b6000806040838503121561214857612147611ecf565b5b60006121568582860161211c565b925050602061216785828601612067565b9150509250929050565b6000819050919050565b600061219661219161218c846120a9565b612171565b6120a9565b9050919050565b60006121a88261217b565b9050919050565b60006121ba8261219d565b9050919050565b6121ca816121af565b82525050565b60006020820190506121e560008301846121c1565b92915050565b60008060006060848603121561220457612203611ecf565b5b60006122128682870161211c565b93505060206122238682870161211c565b925050604061223486828701612067565b9150509250925092565b60006020828403121561225457612253611ecf565b5b60006122628482850161211c565b91505092915050565b61227481612046565b82525050565b600060208201905061228f600083018461226b565b92915050565b61229e81611f5e565b81146122a957600080fd5b50565b6000813590506122bb81612295565b92915050565b600080604083850312156122d8576122d7611ecf565b5b60006122e68582860161211c565b92505060206122f7858286016122ac565b9150509250929050565b600080fd5b600080fd5b7f4e487b7100000000000000000000000000000000000000000000000000000000600052604160045260246000fd5b61234382611fda565b810181811067ffffffffffffffff821117156123625761236161230b565b5b80604052505050565b6000612375611ec5565b9050612381828261233a565b919050565b600067ffffffffffffffff8211156123a1576123a061230b565b5b6123aa82611fda565b9050602081019050919050565b82818337600083830152505050565b60006123d96123d484612386565b61236b565b9050828152602081018484840111156123f5576123f4612306565b5b6124008482856123b7565b509392505050565b600082601f83011261241d5761241c612301565b5b813561242d8482602086016123c6565b91505092915050565b600080600080608085870312156124505761244f611ecf565b5b600061245e8782880161211c565b945050602061246f8782880161211c565b935050604061248087828801612067565b925050606085013567ffffffffffffffff8111156124a1576124a0611ed4565b5b6124ad87828801612408565b91505092959194509250565b600080604083850312156124d0576124cf611ecf565b5b60006124de8582860161211c565b92505060206124ef8582860161211c565b9150509250929050565b7f4e487b7100000000000000000000000000000000000000000000000000000000600052602260045260246000fd5b6000600282049050600182168061254057607f821691505b602082108103612553576125526124f9565b5b50919050565b7f4e487b7100000000000000000000000000000000000000000000000000000000600052601160045260246000fd5b600061259382612046565b91507fffffffffffffffffffffffffffffffffffffffffffffffffffffffffffffffff82036125c5576125c4612559565b5b600182019050919050565b7f4e4654206973206e6f74206c697374656420666f722073616c65000000000000600082015250565b6000612606601a83611f9f565b9150612611826125d0565b602082019050919050565b60006020820190508181036000830152612635816125f9565b9050919050565b7f4e465420646f6573206e6f742065786973740000000000000000000000000000600082015250565b6000612672601283611f9f565b915061267d8261263c565b602082019050919050565b600060208201905081810360008301526126a181612665565b9050919050565b60006060820190506126bd60008301866120db565b6126ca60208301856120db565b6126d7604083018461226b565b949350505050565b6000815190506126ee81612295565b92915050565b60006020828403121561270a57612709611ecf565b5b6000612718848285016126df565b91505092915050565b600060608201905061273660008301866120db565b612743602083018561226b565b61275060408301846120db565b949350505050565b7f4e6f7420746865206f776e6572206f6620746865204e46540000000000000000600082015250565b600061278e601883611f9f565b915061279982612758565b602082019050919050565b600060208201905081810360008301526127bd81612781565b9050919050565b7f4e465420697320616c7265616479206c697374656420666f722073616c650000600082015250565b60006127fa601e83611f9f565b9150612805826127c4565b602082019050919050565b60006020820190508181036000830152612829816127ed565b9050919050565b600081905092915050565b600061284682611f94565b6128508185612830565b9350612860818560208601611fb0565b80840191505092915050565b6000612878828561283b565b9150612884828461283b565b91508190509392505050565b600081519050919050565b600082825260208201905092915050565b60006128b782612890565b6128c1818561289b565b93506128d1818560208601611fb0565b6128da81611fda565b840191505092915050565b60006080820190506128fa60008301876120db565b61290760208301866120db565b612914604083018561226b565b818103606083015261292681846128ac565b905095945050505050565b60008151905061294081611f05565b92915050565b60006020828403121561295c5761295b611ecf565b5b600061296a84828501612931565b91505092915050565b7f4e487b7100000000000000000000000000000000000000000000000000000000600052601260045260246000fd5b60006040820190506129b760008301856120db565b6129c4602083018461226b565b939250505056fea26469706673582212201e9e6999eb43d1a7ea14e83b7143ed879eed9607c1d0a68b81f816bf80ec4d8064736f6c63430008140033",
  "linkReferences": {},
  "deployedLinkReferences": {}
}