{
  "_format": "hh-sol-artifact-1",
  "contractName": "CustomNft",
  "sourceName": "contracts/CustomNft.sol",
  "abi": [
    {
      "inputs": [
        {
          "internalType": "string",
          "name": "name",
          "type": "string"
        },
        {
          "internalType": "string",
          "name": "symbol",
          "type": "string"
        },
        {
          "internalType": "uint256",
          "name": "_price",
          "type": "uint256"
        },
        {
          "internalType": "string",
          "name": "_benefits",
          "type": "string"
        }
      ],
      "stateMutability": "nonpayable",
      "type": "constructor"
    },
    {
      "inputs": [
        {
          "internalType": "address",
          "name": "sender",
          "type": "address"
        },
        {
          "internalType": "uint256",
          "name": "tokenId",
          "type": "uint256"
        },
        {
          "internalType": "address",
          "name": "owner",
          "type": "address"
        }
      ],
      "name": "ERC721IncorrectOwner",
      "type": "error"
    },
    {
      "inputs": [
        {
          "internalType": "address",
          "name": "operator",
          "type": "address"
        },
        {
          "internalType": "uint256",
          "name": "tokenId",
          "type": "uint256"
        }
      ],
      "name": "ERC721InsufficientApproval",
      "type": "error"
    },
    {
      "inputs": [
        {
          "internalType": "address",
          "name": "approver",
          "type": "address"
        }
      ],
      "name": "ERC721InvalidApprover",
      "type": "error"
    },
    {
      "inputs": [
        {
          "internalType": "address",
          "name": "operator",
          "type": "address"
        }
      ],
      "name": "ERC721InvalidOperator",
      "type": "error"
    },
    {
      "inputs": [
        {
          "internalType": "address",
          "name": "owner",
          "type": "address"
        }
      ],
      "name": "ERC721InvalidOwner",
      "type": "error"
    },
    {
      "inputs": [
        {
          "internalType": "address",
          "name": "receiver",
          "type": "address"
        }
      ],
      "name": "ERC721InvalidReceiver",
      "type": "error"
    },
    {
      "inputs": [
        {
          "internalType": "address",
          "name": "sender",
          "type": "address"
        }
      ],
      "name": "ERC721InvalidSender",
      "type": "error"
    },
    {
      "inputs": [
        {
          "internalType": "uint256",
          "name": "tokenId",
          "type": "uint256"
        }
      ],
      "name": "ERC721NonexistentToken",
      "type": "error"
    },
    {
      "anonymous": false,
      "inputs": [
        {
          "indexed": true,
          "internalType": "address",
          "name": "owner",
          "type": "address"
        },
        {
          "indexed": true,
          "internalType": "address",
          "name": "approved",
          "type": "address"
        },
        {
          "indexed": true,
          "internalType": "uint256",
          "name": "tokenId",
          "type": "uint256"
        }
      ],
      "name": "Approval",
      "type": "event"
    },
    {
      "anonymous": false,
      "inputs": [
        {
          "indexed": true,
          "internalType": "address",
          "name": "owner",
          "type": "address"
        },
        {
          "indexed": true,
          "internalType": "address",
          "name": "operator",
          "type": "address"
        },
        {
          "indexed": false,
          "internalType": "bool",
          "name": "approved",
          "type": "bool"
        }
      ],
      "name": "ApprovalForAll",
      "type": "event"
    },
    {
      "anonymous": false,
      "inputs": [
        {
          "indexed": true,
          "internalType": "address",
          "name": "from",
          "type": "address"
        },
        {
          "indexed": true,
          "internalType": "address",
          "name": "to",
          "type": "address"
        },
        {
          "indexed": true,
          "internalType": "uint256",
          "name": "tokenId",
          "type": "uint256"
        }
      ],
      "name": "Transfer",
      "type": "event"
    },
    {
      "inputs": [
        {
          "internalType": "address",
          "name": "to",
          "type": "address"
        },
        {
          "internalType": "uint256",
          "name": "tokenId",
          "type": "uint256"
        }
      ],
      "name": "approve",
      "outputs": [],
      "stateMutability": "nonpayable",
      "type": "function"
    },
    {
      "inputs": [
        {
          "internalType": "address",
          "name": "owner",
          "type": "address"
        }
      ],
      "name": "balanceOf",
      "outputs": [
        {
          "internalType": "uint256",
          "name": "",
          "type": "uint256"
        }
      ],
      "stateMutability": "view",
      "type": "function"
    },
    {
      "inputs": [],
      "name": "benefits",
      "outputs": [
        {
          "internalType": "string",
          "name": "",
          "type": "string"
        }
      ],
      "stateMutability": "view",
      "type": "function"
    },
    {
      "inputs": [
        {
          "internalType": "uint256",
          "name": "tokenId",
          "type": "uint256"
        }
      ],
      "name": "getApproved",
      "outputs": [
        {
          "internalType": "address",
          "name": "",
          "type": "address"
        }
      ],
      "stateMutability": "view",
      "type": "function"
    },
    {
      "inputs": [
        {
          "internalType": "address",
          "name": "owner",
          "type": "address"
        },
        {
          "internalType": "address",
          "name": "operator",
          "type": "address"
        }
      ],
      "name": "isApprovedForAll",
      "outputs": [
        {
          "internalType": "bool",
          "name": "",
          "type": "bool"
        }
      ],
      "stateMutability": "view",
      "type": "function"
    },
    {
      "inputs": [],
      "name": "name",
      "outputs": [
        {
          "internalType": "string",
          "name": "",
          "type": "string"
        }
      ],
      "stateMutability": "view",
      "type": "function"
    },
    {
      "inputs": [
        {
          "internalType": "uint256",
          "name": "tokenId",
          "type": "uint256"
        }
      ],
      "name": "ownerOf",
      "outputs": [
        {
          "internalType": "address",
          "name": "",
          "type": "address"
        }
      ],
      "stateMutability": "view",
      "type": "function"
    },
    {
      "inputs": [],
      "name": "price",
      "outputs": [
        {
          "internalType": "uint256",
          "name": "",
          "type": "uint256"
        }
      ],
      "stateMutability": "view",
      "type": "function"
    },
    {
      "inputs": [
        {
          "internalType": "address",
          "name": "from",
          "type": "address"
        },
        {
          "internalType": "address",
          "name": "to",
          "type": "address"
        },
        {
          "internalType": "uint256",
          "name": "tokenId",
          "type": "uint256"
        }
      ],
      "name": "safeTransferFrom",
      "outputs": [],
      "stateMutability": "nonpayable",
      "type": "function"
    },
    {
      "inputs": [
        {
          "internalType": "address",
          "name": "from",
          "type": "address"
        },
        {
          "internalType": "address",
          "name": "to",
          "type": "address"
        },
        {
          "internalType": "uint256",
          "name": "tokenId",
          "type": "uint256"
        },
        {
          "internalType": "bytes",
          "name": "data",
          "type": "bytes"
        }
      ],
      "name": "safeTransferFrom",
      "outputs": [],
      "stateMutability": "nonpayable",
      "type": "function"
    },
    {
      "inputs": [
        {
          "internalType": "address",
          "name": "operator",
          "type": "address"
        },
        {
          "internalType": "bool",
          "name": "approved",
          "type": "bool"
        }
      ],
      "name": "setApprovalForAll",
      "outputs": [],
      "stateMutability": "nonpayable",
      "type": "function"
    },
    {
      "inputs": [
        {
          "internalType": "bytes4",
          "name": "interfaceId",
          "type": "bytes4"
        }
      ],
      "name": "supportsInterface",
      "outputs": [
        {
          "internalType": "bool",
          "name": "",
          "type": "bool"
        }
      ],
      "stateMutability": "view",
      "type": "function"
    },
    {
      "inputs": [],
      "name": "symbol",
      "outputs": [
        {
          "internalType": "string",
          "name": "",
          "type": "string"
        }
      ],
      "stateMutability": "view",
      "type": "function"
    },
    {
      "inputs": [
        {
          "internalType": "uint256",
          "name": "tokenId",
          "type": "uint256"
        }
      ],
      "name": "tokenURI",
      "outputs": [
        {
          "internalType": "string",
          "name": "",
          "type": "string"
        }
      ],
      "stateMutability": "view",
      "type": "function"
    },
    {
      "inputs": [
        {
          "internalType": "address",
          "name": "from",
          "type": "address"
        },
        {
          "internalType": "address",
          "name": "to",
          "type": "address"
        },
        {
          "internalType": "uint256",
          "name": "tokenId",
          "type": "uint256"
        }
      ],
      "name": "transferFrom",
      "outputs": [],
      "stateMutability": "nonpayable",
      "type": "function"
    }
  ],
  "bytecode": "0x60806040523480156200001157600080fd5b50604051620029f0380380620029f08339818101604052810190620000379190620006a3565b838381600090816200004a9190620009b3565b5080600190816200005c9190620009b3565b505050816006819055508060079081620000779190620009b3565b50620000bf6040518060400160405280600481526020017f6e616d6500000000000000000000000000000000000000000000000000000000815250856200027960201b60201c565b620001066040518060400160405280600681526020017f73796d626f6c0000000000000000000000000000000000000000000000000000815250846200027960201b60201c565b6200014f6040518060400160405280600581526020017f70726963650000000000000000000000000000000000000000000000000000008152506006546200031f60201b60201c565b620002286040518060400160405280600881526020017f62656e6566697473000000000000000000000000000000000000000000000000815250600780546200019890620007ac565b80601f0160208091040260200160405190810160405280929190818152602001828054620001c690620007ac565b8015620002175780601f10620001eb5761010080835404028352916020019162000217565b820191906000526020600020905b815481529060010190602001808311620001f957829003601f168201915b50505050506200027960201b60201c565b6200026f6040518060400160405280600a81526020017f6d73672e73656e6465720000000000000000000000000000000000000000000081525033620003c560201b60201c565b5050505062000c14565b6200031b82826040516024016200029292919062000aec565b6040516020818303038152906040527f4b5c4277000000000000000000000000000000000000000000000000000000007bffffffffffffffffffffffffffffffffffffffffffffffffffffffff19166020820180517bffffffffffffffffffffffffffffffffffffffffffffffffffffffff83818316178352505050506200046b60201b60201c565b5050565b620003c182826040516024016200033892919062000b38565b6040516020818303038152906040527fb60e72cc000000000000000000000000000000000000000000000000000000007bffffffffffffffffffffffffffffffffffffffffffffffffffffffff19166020820180517bffffffffffffffffffffffffffffffffffffffffffffffffffffffff83818316178352505050506200046b60201b60201c565b5050565b620004678282604051602401620003de92919062000bb1565b6040516020818303038152906040527f319af333000000000000000000000000000000000000000000000000000000007bffffffffffffffffffffffffffffffffffffffffffffffffffffffff19166020820180517bffffffffffffffffffffffffffffffffffffffffffffffffffffffff83818316178352505050506200046b60201b60201c565b5050565b62000491816200048c6200049460201b6200090817620004b560201b60201c565b60201c565b50565b60006a636f6e736f6c652e6c6f679050600080835160208501845afa505050565b620004c960201b6200157117819050919050565b620004d362000be5565b565b6000604051905090565b600080fd5b600080fd5b600080fd5b600080fd5b6000601f19601f8301169050919050565b7f4e487b7100000000000000000000000000000000000000000000000000000000600052604160045260246000fd5b6200053e82620004f3565b810181811067ffffffffffffffff8211171562000560576200055f62000504565b5b80604052505050565b600062000575620004d5565b905062000583828262000533565b919050565b600067ffffffffffffffff821115620005a657620005a562000504565b5b620005b182620004f3565b9050602081019050919050565b60005b83811015620005de578082015181840152602081019050620005c1565b60008484015250505050565b600062000601620005fb8462000588565b62000569565b90508281526020810184848401111562000620576200061f620004ee565b5b6200062d848285620005be565b509392505050565b600082601f8301126200064d576200064c620004e9565b5b81516200065f848260208601620005ea565b91505092915050565b6000819050919050565b6200067d8162000668565b81146200068957600080fd5b50565b6000815190506200069d8162000672565b92915050565b60008060008060808587031215620006c057620006bf620004df565b5b600085015167ffffffffffffffff811115620006e157620006e0620004e4565b5b620006ef8782880162000635565b945050602085015167ffffffffffffffff811115620007135762000712620004e4565b5b620007218782880162000635565b935050604062000734878288016200068c565b925050606085015167ffffffffffffffff811115620007585762000757620004e4565b5b620007668782880162000635565b91505092959194509250565b600081519050919050565b7f4e487b7100000000000000000000000000000000000000000000000000000000600052602260045260246000fd5b60006002820490506001821680620007c557607f821691505b602082108103620007db57620007da6200077d565b5b50919050565b60008190508160005260206000209050919050565b60006020601f8301049050919050565b600082821b905092915050565b600060088302620008457fffffffffffffffffffffffffffffffffffffffffffffffffffffffffffffffff8262000806565b62000851868362000806565b95508019841693508086168417925050509392505050565b6000819050919050565b6000620008946200088e620008888462000668565b62000869565b62000668565b9050919050565b6000819050919050565b620008b08362000873565b620008c8620008bf826200089b565b84845462000813565b825550505050565b600090565b620008df620008d0565b620008ec818484620008a5565b505050565b5b81811015620009145762000908600082620008d5565b600181019050620008f2565b5050565b601f82111562000963576200092d81620007e1565b6200093884620007f6565b8101602085101562000948578190505b620009606200095785620007f6565b830182620008f1565b50505b505050565b600082821c905092915050565b6000620009886000198460080262000968565b1980831691505092915050565b6000620009a3838362000975565b9150826002028217905092915050565b620009be8262000772565b67ffffffffffffffff811115620009da57620009d962000504565b5b620009e68254620007ac565b620009f382828562000918565b600060209050601f83116001811462000a2b576000841562000a16578287015190505b62000a22858262000995565b86555062000a92565b601f19841662000a3b86620007e1565b60005b8281101562000a655784890151825560018201915060208501945060208101905062000a3e565b8683101562000a85578489015162000a81601f89168262000975565b8355505b6001600288020188555050505b505050505050565b600082825260208201905092915050565b600062000ab88262000772565b62000ac4818562000a9a565b935062000ad6818560208601620005be565b62000ae181620004f3565b840191505092915050565b6000604082019050818103600083015262000b08818562000aab565b9050818103602083015262000b1e818462000aab565b90509392505050565b62000b328162000668565b82525050565b6000604082019050818103600083015262000b54818562000aab565b905062000b65602083018462000b27565b9392505050565b600073ffffffffffffffffffffffffffffffffffffffff82169050919050565b600062000b998262000b6c565b9050919050565b62000bab8162000b8c565b82525050565b6000604082019050818103600083015262000bcd818562000aab565b905062000bde602083018462000ba0565b9392505050565b7f4e487b7100000000000000000000000000000000000000000000000000000000600052605160045260246000fd5b611dcc8062000c246000396000f3fe608060405234801561001057600080fd5b50600436106100f55760003560e01c80636352211e11610097578063a22cb46511610066578063a22cb46514610286578063b88d4fde146102a2578063c87b56dd146102be578063e985e9c5146102ee576100f5565b80636352211e146101ea57806370a082311461021a57806395d89b411461024a578063a035b1fe14610268576100f5565b8063095ea7b3116100d3578063095ea7b31461017857806323b872dd1461019457806342842e0e146101b05780635c610706146101cc576100f5565b806301ffc9a7146100fa57806306fdde031461012a578063081812fc14610148575b600080fd5b610114600480360381019061010f91906115e7565b61031e565b604051610121919061162f565b60405180910390f35b610132610400565b60405161013f91906116da565b60405180910390f35b610162600480360381019061015d9190611732565b610492565b60405161016f91906117a0565b60405180910390f35b610192600480360381019061018d91906117e7565b6104ae565b005b6101ae60048036038101906101a99190611827565b6104c4565b005b6101ca60048036038101906101c59190611827565b6105c6565b005b6101d46105e6565b6040516101e191906116da565b60405180910390f35b61020460048036038101906101ff9190611732565b610674565b60405161021191906117a0565b60405180910390f35b610234600480360381019061022f919061187a565b610686565b60405161024191906118b6565b60405180910390f35b610252610740565b60405161025f91906116da565b60405180910390f35b6102706107d2565b60405161027d91906118b6565b60405180910390f35b6102a0600480360381019061029b91906118fd565b6107d8565b005b6102bc60048036038101906102b79190611a72565b6107ee565b005b6102d860048036038101906102d39190611732565b61080b565b6040516102e591906116da565b60405180910390f35b61030860048036038101906103039190611af5565b610874565b604051610315919061162f565b60405180910390f35b60007f80ac58cd000000000000000000000000000000000000000000000000000000007bffffffffffffffffffffffffffffffffffffffffffffffffffffffff1916827bffffffffffffffffffffffffffffffffffffffffffffffffffffffff191614806103e957507f5b5e139f000000000000000000000000000000000000000000000000000000007bffffffffffffffffffffffffffffffffffffffffffffffffffffffff1916827bffffffffffffffffffffffffffffffffffffffffffffffffffffffff1916145b806103f957506103f882610929565b5b9050919050565b60606000805461040f90611b64565b80601f016020809104026020016040519081016040528092919081815260200182805461043b90611b64565b80156104885780601f1061045d57610100808354040283529160200191610488565b820191906000526020600020905b81548152906001019060200180831161046b57829003601f168201915b5050505050905090565b600061049d82610993565b506104a782610a1b565b9050919050565b6104c082826104bb610a58565b610a60565b5050565b600073ffffffffffffffffffffffffffffffffffffffff168273ffffffffffffffffffffffffffffffffffffffff16036105365760006040517f64a0ae9200000000000000000000000000000000000000000000000000000000815260040161052d91906117a0565b60405180910390fd5b600061054a8383610545610a58565b610a72565b90508373ffffffffffffffffffffffffffffffffffffffff168173ffffffffffffffffffffffffffffffffffffffff16146105c0578382826040517f64283d7b0000000000000000000000000000000000000000000000000000000081526004016105b793929190611b95565b60405180910390fd5b50505050565b6105e1838383604051806020016040528060008152506107ee565b505050565b600780546105f390611b64565b80601f016020809104026020016040519081016040528092919081815260200182805461061f90611b64565b801561066c5780601f106106415761010080835404028352916020019161066c565b820191906000526020600020905b81548152906001019060200180831161064f57829003601f168201915b505050505081565b600061067f82610993565b9050919050565b60008073ffffffffffffffffffffffffffffffffffffffff168273ffffffffffffffffffffffffffffffffffffffff16036106f95760006040517f89c62b640000000000000000000000000000000000000000000000000000000081526004016106f091906117a0565b60405180910390fd5b600360008373ffffffffffffffffffffffffffffffffffffffff1673ffffffffffffffffffffffffffffffffffffffff168152602001908152602001600020549050919050565b60606001805461074f90611b64565b80601f016020809104026020016040519081016040528092919081815260200182805461077b90611b64565b80156107c85780601f1061079d576101008083540402835291602001916107c8565b820191906000526020600020905b8154815290600101906020018083116107ab57829003601f168201915b5050505050905090565b60065481565b6107ea6107e3610a58565b8383610c8c565b5050565b6107f98484846104c4565b61080584848484610dfb565b50505050565b606061081682610993565b506000610821610fb2565b90506000815111610841576040518060200160405280600081525061086c565b8061084b84610fc9565b60405160200161085c929190611c08565b6040516020818303038152906040525b915050919050565b6000600560008473ffffffffffffffffffffffffffffffffffffffff1673ffffffffffffffffffffffffffffffffffffffff16815260200190815260200160002060008373ffffffffffffffffffffffffffffffffffffffff1673ffffffffffffffffffffffffffffffffffffffff16815260200190815260200160002060009054906101000a900460ff16905092915050565b60006a636f6e736f6c652e6c6f679050600080835160208501845afa505050565b60007f01ffc9a7000000000000000000000000000000000000000000000000000000007bffffffffffffffffffffffffffffffffffffffffffffffffffffffff1916827bffffffffffffffffffffffffffffffffffffffffffffffffffffffff1916149050919050565b60008061099f83611097565b9050600073ffffffffffffffffffffffffffffffffffffffff168173ffffffffffffffffffffffffffffffffffffffff1603610a1257826040517f7e273289000000000000000000000000000000000000000000000000000000008152600401610a0991906118b6565b60405180910390fd5b80915050919050565b60006004600083815260200190815260200160002060009054906101000a900473ffffffffffffffffffffffffffffffffffffffff169050919050565b600033905090565b610a6d83838360016110d4565b505050565b600080610a7e84611097565b9050600073ffffffffffffffffffffffffffffffffffffffff168373ffffffffffffffffffffffffffffffffffffffff1614610ac057610abf818486611299565b5b600073ffffffffffffffffffffffffffffffffffffffff168173ffffffffffffffffffffffffffffffffffffffff1614610b5157610b026000856000806110d4565b6001600360008373ffffffffffffffffffffffffffffffffffffffff1673ffffffffffffffffffffffffffffffffffffffff168152602001908152602001600020600082825403925050819055505b600073ffffffffffffffffffffffffffffffffffffffff168573ffffffffffffffffffffffffffffffffffffffff1614610bd4576001600360008773ffffffffffffffffffffffffffffffffffffffff1673ffffffffffffffffffffffffffffffffffffffff168152602001908152602001600020600082825401925050819055505b846002600086815260200190815260200160002060006101000a81548173ffffffffffffffffffffffffffffffffffffffff021916908373ffffffffffffffffffffffffffffffffffffffff160217905550838573ffffffffffffffffffffffffffffffffffffffff168273ffffffffffffffffffffffffffffffffffffffff167fddf252ad1be2c89b69c2b068fc378daa952ba7f163c4a11628f55a4df523b3ef60405160405180910390a4809150509392505050565b600073ffffffffffffffffffffffffffffffffffffffff168273ffffffffffffffffffffffffffffffffffffffff1603610cfd57816040517f5b08ba18000000000000000000000000000000000000000000000000000000008152600401610cf491906117a0565b60405180910390fd5b80600560008573ffffffffffffffffffffffffffffffffffffffff1673ffffffffffffffffffffffffffffffffffffffff16815260200190815260200160002060008473ffffffffffffffffffffffffffffffffffffffff1673ffffffffffffffffffffffffffffffffffffffff16815260200190815260200160002060006101000a81548160ff0219169083151502179055508173ffffffffffffffffffffffffffffffffffffffff168373ffffffffffffffffffffffffffffffffffffffff167f17307eab39ab6107e8899845ad3d59bd9653f200f220920489ca2b5937696c3183604051610dee919061162f565b60405180910390a3505050565b60008373ffffffffffffffffffffffffffffffffffffffff163b1115610fac578273ffffffffffffffffffffffffffffffffffffffff1663150b7a02610e3f610a58565b8685856040518563ffffffff1660e01b8152600401610e619493929190611c81565b6020604051808303816000875af1925050508015610e9d57506040513d601f19601f82011682018060405250810190610e9a9190611ce2565b60015b610f21573d8060008114610ecd576040519150601f19603f3d011682016040523d82523d6000602084013e610ed2565b606091505b506000815103610f1957836040517f64a0ae92000000000000000000000000000000000000000000000000000000008152600401610f1091906117a0565b60405180910390fd5b805181602001fd5b63150b7a0260e01b7bffffffffffffffffffffffffffffffffffffffffffffffffffffffff1916817bffffffffffffffffffffffffffffffffffffffffffffffffffffffff191614610faa57836040517f64a0ae92000000000000000000000000000000000000000000000000000000008152600401610fa191906117a0565b60405180910390fd5b505b50505050565b606060405180602001604052806000815250905090565b606060006001610fd88461135d565b01905060008167ffffffffffffffff811115610ff757610ff6611947565b5b6040519080825280601f01601f1916602001820160405280156110295781602001600182028036833780820191505090505b509050600082602001820190505b60011561108c578080600190039150507f3031323334353637383961626364656600000000000000000000000000000000600a86061a8153600a85816110805761107f611d0f565b5b04945060008503611037575b819350505050919050565b60006002600083815260200190815260200160002060009054906101000a900473ffffffffffffffffffffffffffffffffffffffff169050919050565b808061110d5750600073ffffffffffffffffffffffffffffffffffffffff168273ffffffffffffffffffffffffffffffffffffffff1614155b1561124157600061111d84610993565b9050600073ffffffffffffffffffffffffffffffffffffffff168373ffffffffffffffffffffffffffffffffffffffff161415801561118857508273ffffffffffffffffffffffffffffffffffffffff168173ffffffffffffffffffffffffffffffffffffffff1614155b801561119b57506111998184610874565b155b156111dd57826040517fa9fbf51f0000000000000000000000000000000000000000000000000000000081526004016111d491906117a0565b60405180910390fd5b811561123f57838573ffffffffffffffffffffffffffffffffffffffff168273ffffffffffffffffffffffffffffffffffffffff167f8c5be1e5ebec7d5bd14f71427d1e84f3dd0314c0f7b2291e5b200ac8c7c3b92560405160405180910390a45b505b836004600085815260200190815260200160002060006101000a81548173ffffffffffffffffffffffffffffffffffffffff021916908373ffffffffffffffffffffffffffffffffffffffff16021790555050505050565b6112a48383836114b0565b61135857600073ffffffffffffffffffffffffffffffffffffffff168373ffffffffffffffffffffffffffffffffffffffff160361131957806040517f7e27328900000000000000000000000000000000000000000000000000000000815260040161131091906118b6565b60405180910390fd5b81816040517f177e802f00000000000000000000000000000000000000000000000000000000815260040161134f929190611d3e565b60405180910390fd5b505050565b600080600090507a184f03e93ff9f4daa797ed6e38ed64bf6a1f01000000000000000083106113bb577a184f03e93ff9f4daa797ed6e38ed64bf6a1f01000000000000000083816113b1576113b0611d0f565b5b0492506040810190505b6d04ee2d6d415b85acef810000000083106113f8576d04ee2d6d415b85acef810000000083816113ee576113ed611d0f565b5b0492506020810190505b662386f26fc10000831061142757662386f26fc10000838161141d5761141c611d0f565b5b0492506010810190505b6305f5e1008310611450576305f5e100838161144657611445611d0f565b5b0492506008810190505b612710831061147557612710838161146b5761146a611d0f565b5b0492506004810190505b60648310611498576064838161148e5761148d611d0f565b5b0492506002810190505b600a83106114a7576001810190505b80915050919050565b60008073ffffffffffffffffffffffffffffffffffffffff168373ffffffffffffffffffffffffffffffffffffffff161415801561156857508273ffffffffffffffffffffffffffffffffffffffff168473ffffffffffffffffffffffffffffffffffffffff16148061152957506115288484610874565b5b8061156757508273ffffffffffffffffffffffffffffffffffffffff1661154f83610a1b565b73ffffffffffffffffffffffffffffffffffffffff16145b5b90509392505050565b611579611d67565b565b6000604051905090565b600080fd5b600080fd5b60007fffffffff0000000000000000000000000000000000000000000000000000000082169050919050565b6115c48161158f565b81146115cf57600080fd5b50565b6000813590506115e1816115bb565b92915050565b6000602082840312156115fd576115fc611585565b5b600061160b848285016115d2565b91505092915050565b60008115159050919050565b61162981611614565b82525050565b60006020820190506116446000830184611620565b92915050565b600081519050919050565b600082825260208201905092915050565b60005b83811015611684578082015181840152602081019050611669565b60008484015250505050565b6000601f19601f8301169050919050565b60006116ac8261164a565b6116b68185611655565b93506116c6818560208601611666565b6116cf81611690565b840191505092915050565b600060208201905081810360008301526116f481846116a1565b905092915050565b6000819050919050565b61170f816116fc565b811461171a57600080fd5b50565b60008135905061172c81611706565b92915050565b60006020828403121561174857611747611585565b5b60006117568482850161171d565b91505092915050565b600073ffffffffffffffffffffffffffffffffffffffff82169050919050565b600061178a8261175f565b9050919050565b61179a8161177f565b82525050565b60006020820190506117b56000830184611791565b92915050565b6117c48161177f565b81146117cf57600080fd5b50565b6000813590506117e1816117bb565b92915050565b600080604083850312156117fe576117fd611585565b5b600061180c858286016117d2565b925050602061181d8582860161171d565b9150509250929050565b6000806000606084860312156118405761183f611585565b5b600061184e868287016117d2565b935050602061185f868287016117d2565b92505060406118708682870161171d565b9150509250925092565b6000602082840312156118905761188f611585565b5b600061189e848285016117d2565b91505092915050565b6118b0816116fc565b82525050565b60006020820190506118cb60008301846118a7565b92915050565b6118da81611614565b81146118e557600080fd5b50565b6000813590506118f7816118d1565b92915050565b6000806040838503121561191457611913611585565b5b6000611922858286016117d2565b9250506020611933858286016118e8565b9150509250929050565b600080fd5b600080fd5b7f4e487b7100000000000000000000000000000000000000000000000000000000600052604160045260246000fd5b61197f82611690565b810181811067ffffffffffffffff8211171561199e5761199d611947565b5b80604052505050565b60006119b161157b565b90506119bd8282611976565b919050565b600067ffffffffffffffff8211156119dd576119dc611947565b5b6119e682611690565b9050602081019050919050565b82818337600083830152505050565b6000611a15611a10846119c2565b6119a7565b905082815260208101848484011115611a3157611a30611942565b5b611a3c8482856119f3565b509392505050565b600082601f830112611a5957611a5861193d565b5b8135611a69848260208601611a02565b91505092915050565b60008060008060808587031215611a8c57611a8b611585565b5b6000611a9a878288016117d2565b9450506020611aab878288016117d2565b9350506040611abc8782880161171d565b925050606085013567ffffffffffffffff811115611add57611adc61158a565b5b611ae987828801611a44565b91505092959194509250565b60008060408385031215611b0c57611b0b611585565b5b6000611b1a858286016117d2565b9250506020611b2b858286016117d2565b9150509250929050565b7f4e487b7100000000000000000000000000000000000000000000000000000000600052602260045260246000fd5b60006002820490506001821680611b7c57607f821691505b602082108103611b8f57611b8e611b35565b5b50919050565b6000606082019050611baa6000830186611791565b611bb760208301856118a7565b611bc46040830184611791565b949350505050565b600081905092915050565b6000611be28261164a565b611bec8185611bcc565b9350611bfc818560208601611666565b80840191505092915050565b6000611c148285611bd7565b9150611c208284611bd7565b91508190509392505050565b600081519050919050565b600082825260208201905092915050565b6000611c5382611c2c565b611c5d8185611c37565b9350611c6d818560208601611666565b611c7681611690565b840191505092915050565b6000608082019050611c966000830187611791565b611ca36020830186611791565b611cb060408301856118a7565b8181036060830152611cc28184611c48565b905095945050505050565b600081519050611cdc816115bb565b92915050565b600060208284031215611cf857611cf7611585565b5b6000611d0684828501611ccd565b91505092915050565b7f4e487b7100000000000000000000000000000000000000000000000000000000600052601260045260246000fd5b6000604082019050611d536000830185611791565b611d6060208301846118a7565b9392505050565b7f4e487b7100000000000000000000000000000000000000000000000000000000600052605160045260246000fdfea26469706673582212207ab0b5561d524beb6a3c7b3c63590ebd20e9d230c54b7b9b4b07a807ba68703564736f6c63430008140033",
  "linkReferences": {},
  "deployedLinkReferences": {}
}